:020000040000FA
:100000000C9462000C948A000C948A000C94D40B1B
:100010000C94D40B0C94D40B0C948A000C948A008E
:100020000C948A000C948A000C948A000C948A0028
:100030000C948A000C948A000C948A000C948A0018
:100040000C94320B0C948A000C94A20B0C947C0B35
:100050000C948A000C948A000C948A000C948A00F8
:100060000C948A000C948A000000000024002700F1
:100070002A000000000023002600290000000000E4
:10008000250028002B0004040404040404040202D4
:100090000202020203030303030301020408102007
:1000A0004080010204081020010204081020000012
:1000B0000008000201000003040700000000000027
:1000C0000000DE0B11241FBECFEFD8E0DEBFCDBF96
:1000D00024E0AEEAB1E001C01D92A53EB207E1F70F
:1000E00011E0A0E0B1E0E0E3F6E202C005900D927D
:1000F000AE3AB107D9F710E0C2E6D0E004C02197CC
:10010000FE010E947D0EC136D107C9F70E946A0C1C
:100110000C9416130C940000833081F028F4813085
:1001200099F08230A9F008958730A9F08830C9F09D
:100130008430B1F4809180008F7D03C08091800075
:100140008F7780938000089584B58F7784BD08955C
:1001500084B58F7DFBCF8091B0008F778093B00006
:1001600008958091B0008F7DF9CF1F93CF93DF93D7
:10017000282F30E0F901E255FF4F8491F901E6564E
:10018000FF4FD491F901EA57FF4FC491CC23A9F056
:10019000162F81110E948C00EC2FF0E0EE0FFF1F54
:1001A000E458FF4FA591B4918FB7F894EC911111D9
:1001B00008C0D095DE23DC938FBFDF91CF911F91D4
:1001C0000895DE2BF8CF3FB7F8948091C503909146
:1001D000C603A091C703B091C80326B5A89B05C06C
:1001E0002F3F19F00196A11DB11D3FBFBA2FA92FB6
:1001F000982F8827BC01CD01620F711D811D911DB3
:1002000042E0660F771F881F991F4A95D1F708951E
:100210008F929F92AF92BF92CF92DF92EF92FF9216
:100220006B017C010E94E3004B015C01C114D1040D
:10023000E104F104B9F00E94E300681979098A0920
:100240009B09683E73408105910580F321E0C21A45
:10025000D108E108F10888EE880E83E0981EA11C01
:10026000B11CE4CFFF90EF90DF90CF90BF90AF90A4
:100270009F908F9008952FB7F8946091C10370916B
:10028000C2038091C3039091C4032FBF089561E01E
:1002900083E10E94B5006091020170910301809199
:1002A0000401909105010E94080160E083E10C9433
:1002B000B500AF92BF92CF92DF92EF92FF920F9371
:1002C0001F93CF93DF936C017B018B01040F151FEC
:1002D000EB015E01AE18BF08C017D10759F0699154
:1002E000D601ED91FC910190F081E02DC6010995B8
:1002F000892B79F7C501DF91CF911F910F91FF9065
:10030000EF90DF90CF90BF90AF900895FC01538D98
:10031000448D252F30E0842F90E0821B930B5417DF
:1003200010F0CF96089501970895FC01918D828D6C
:10033000981761F0A28DAE0FBF2FB11D5D968C9105
:10034000928D9F5F9F73928F90E008958FEF9FEF44
:1003500008958F929F92AF92BF92EF92FF920F9368
:100360001F93CF93DF9300D000D0CDB7DEB71982B3
:100370001A821B821C8284E690E0A0E0B0E08093A9
:10038000CD039093CE03A093CF03B093D0038E01FF
:100390000F5F1F4F7E0185E0E80EF11C0E943B01BC
:1003A0006093D1037093D2038093D3039093D403CB
:1003B00089EC93E00E94950197FF38C00E943B01B1
:1003C0008090D1039090D203A090D303B090D40337
:1003D000681979098A099B098090CD039090CE0312
:1003E000A090CF03B090D003681579058A059B05CE
:1003F000F8F28981813051F48A818F3F39F48B8101
:100400008F3F21F481E09C819F3F09F080E00F90B5
:100410000F900F900F90DF91CF911F910F91FF9050
:10042000EF90BF90AF909F908F900895F8018193C7
:100430008F01EE16FF0609F0B1CFDBCFFC01918DE5
:10044000828D981731F0828DE80FF11D858D90E037
:1004500008958FEF9FEF0895FC01918D228D892FD4
:1004600090E0805C9F4F821B91098F7399270895BC
:1004700089EC93E00E942C0221E0892B09F420E012
:10048000822F089580E090E0892B29F00E943802A5
:1004900081110C9400000895FC01A48DA80FB92FC0
:1004A000B11DA35ABF4F2C91848D90E001968F739C
:1004B0009927848FA689B7892C93A089B1898C91BB
:1004C000837080648C93938D848D981306C002880A
:1004D000F389E02D80818F7D80830895EF92FF92D4
:1004E0000F931F93CF93DF93EC0181E0888F9B8D57
:1004F0008C8D98131AC0E889F989808185FF15C011
:100500009FB7F894EE89FF896083E889F989808133
:100510008370806480839FBF81E090E0DF91CF9102
:100520001F910F91FF90EF900895F62E0B8D10E024
:100530000F5F1F4F0F731127E02E8C8D8E110CC093
:100540000FB607FCFACFE889F989808185FFF5CFDE
:10055000CE010E944C02F1CFEB8DEC0FFD2FF11D6F
:10056000E35AFF4FF0829FB7F8940B8FEA89FB891B
:1005700080818062CFCFCF93DF93EC01888D882379
:10058000B9F0AA89BB89E889F9898C9185FD03C0F6
:10059000808186FD0DC00FB607FCF7CF8C9185FFDB
:1005A000F2CF808185FFEDCFCE010E944C02E9CFD2
:1005B000DF91CF9108952091B001211109C021E070
:1005C0002093B00130916604209167043CBD2DBD9D
:1005D00060E0FC0184810C94B50061E0FC01848141
:1005E0000E94B5008091B00181111092B001089570
:1005F0008EBD00000DB407FEFDCF8EB508958FEFC0
:100600000C94F8020F931F93CF93DF93EC010E9499
:100610003B018B010E94FF028F3F69F00E943B016A
:10062000601B710B6C177D07A8F380E0DF91CF9101
:100630001F910F91089581E0F9CFCF92DF92EF9251
:10064000FF920F931F93CF93DF93EC01162F690155
:100650007A018E81882389F08F8198859C012F5F94
:100660003F4F38872F838230924018F40E94FF0258
:10067000F3CFCE010E94ED021E82CE010E94DB026A
:100680008CE291E00E940203812F80640E94F802B4
:1006900008E110E0D701C601002E04C0B695A79569
:1006A000979587950A94D2F70E94F802085011098D
:1006B000083F8FEF180771F78FEF0E94F80210E0E4
:1006C0000E94FF028A8787FF04C01F3F11F01F5F4F
:1006D000F7CFDF91CF911F910F91FF90EF90DF90B7
:1006E000CF900895CF92DF92EF92FF920F93CF9326
:1006F000DF93EC01690182E1411551056105710546
:1007000099F08B85833039F089E0440F551F661FBF
:10071000771F8A95D1F79A01AB0168E1CE010E945B
:100720001D03882319F084E08D832DC08EEF0E9475
:10073000F80276018EEFD81AF70181917F010E94AD
:10074000F802EC14FD04C1F78FEF0E94F8028FEF5E
:100750000E94F8020E94FF028A878F71853071F42F
:10076000011116C0CE010E94ED0281E0DF91CF9110
:100770000F91FF90EF90DF90CF90089581E18D83EE
:10078000CE010E94ED02CE010E94ED0280E0EECF8C
:1007900088E592E00E940203811102C085E1C4CF86
:1007A00020E030E0A9016DE0CE010E941D03882306
:1007B00011F084E1B9CF0E94FF028111FACFD2CFAC
:1007C0000F934091B2015091B3016091B4017091C7
:1007D000B501411551056105710589F0082F26EB1A
:1007E00031E090E080E00E947203882349F010928B
:1007F000B2011092B3011092B4011092B50181E0E0
:100800000F9108950F93CF93C82F8091B10181115B
:1008100005C0C1E08C2FCF910F9108954091060142
:100820005091070160910801709109010C2F26EB8E
:1008300031E090E080E00E947203811102C0C0E0CC
:10084000E9CFCC2331F381E00E94E0038823B9F3A0
:100850001092B101DFCFAF92BF92CF92DF92EF92B1
:10086000FF921F93CF93DF936B017C01142F809134
:10087000060190910701A0910801B09109018C1522
:100880009D05AE05BF0509F4ADC081E00E940204DC
:100890008823E1F1809106008823A1F08091000077
:1008A00090910100A0910200B0910300C816D906F2
:1008B000EA06FB0639F48091070090910800892B25
:1008C00009F44FC0C0920000D0920100E0920200F3
:1008D000F092030080910B00A7019601833039F05C
:1008E00099E0220F331F441F551F9A95D1F761E1FC
:1008F00090E080E00E941D03882391F083E08093C4
:10090000050090E080E00E94ED0280E0DF91CF9151
:100910001F91FF90EF90DF90CF90BF90AF90089520
:100920000E943B01EB010E94FF0280930A008F3F6F
:1009300079F40E943B016C1B7D0B6D32714098F382
:100940008FE08093050090E080E00E94ED02D9CF17
:100950008E3FC1F5109208001092070081E080934D
:100960000600C6EBD1E086EBA82E83E0B82E0E94ED
:10097000FF028993AC16BD06D1F7809107009091D4
:1009800008009E5F90930800809307002091090063
:10099000222319F081159240E8F080910600882307
:1009A000C9F080910700909108009C012F5F3F4F94
:1009B00030930800209307008230924028F40E9470
:1009C000FF02EFCF8DE0BDCF90E080E00E94ED020E
:1009D00010920600C0920601D0920701E092080131
:1009E000F09209014091B101412B4093B10181E0A6
:1009F0008DCF4F925F926F927F928F929F92AF9224
:100A0000BF92CF92DF92EF92FF920F931F93CF93FB
:100A1000DF93EC01423051056105710590F480E0EF
:100A2000DF91CF911F910F91FF90EF90DF90CF90CA
:100A3000BF90AF909F908F907F906F905F904F90FE
:100A4000089589859A85AB85BC850196A11DB11D48
:100A500084179507A607B70710F3CB88DC88ED88C5
:100A6000FE888F89803109F042C0BB27A72F962FBF
:100A7000852F480159012A013B01C80ED91EEA1EE3
:100A8000FB1E8091060190910701A0910801B09191
:100A90000901C816D906EA06FB0699F58F89803147
:100AA000C1F5B301A201552766277727440F551FCB
:100AB0004A545E4FFA01918280828091B101816037
:100AC0008093B1018A89823080F08D819E81AF81CF
:100AD000B8858C0D9D1DAE1DBF1D8093B2019093F6
:100AE000B301A093B401B093B50181E099CFDB01CC
:100AF000CA01E7E0B695A79597958795EA95D1F74E
:100B0000B8CF40E0C701B6010E942B048111C6CFC7
:100B100086CFB301A2014F77552766277727440F69
:100B2000551F440F551F4A545E4FFA01808291822F
:100B3000A282B382C2CF8F929F92AF92BF92CF9286
:100B4000DF92EF92FF920F931F93CF93DF93FC01FD
:100B500081859285A385B4850196A11DB11D841759
:100B60009507A607B70770F480E0DF91CF911F913A
:100B70000F91FF90EF90DF90CF90BF90AF909F903C
:100B80008F90089583889488A588B6888789803156
:100B900089F5BB27A72F962F852FE9016A017B01D5
:100BA0008F01BC01CD01680D791D8A1D9B1D8090B0
:100BB000060190900701A0900801B09009018616E7
:100BC0009706A806B90601F5F8018789803111F565
:100BD000DD24EE24FF24F601EE0FFF1FEA54FE4F42
:100BE00080819181B0E0A0E088839983AA83BB8350
:100BF00081E0BBCFDB01CA01C7E0B695A795979509
:100C00008795CA95D1F7C9CF40E00E942B04811186
:100C1000DBCFAACFE894C7F8DD24EE24FF24F60149
:100C2000EE0FFF1FEE0FFF1FEA54FE4F80819181F0
:100C3000A281B381BF70D8CF8F929F92AF92BF92A3
:100C4000CF92DF92EF92FF920F931F93CF93DF9398
:100C5000EC018D8181110EC080E0DF91CF911F9159
:100C60000F91FF90EF90DF90CF90BF90AF909F904B
:100C70008F9008950B891C892D893E8904171507CB
:100C80002607370748F34A015B01823031F48A8630
:100C90009B86AC86BD8681E0E0CF81149104A104DF
:100CA000B10449F41E821F82188619861A861B8693
:100CB0001C861D86F0CF0A851B852C853D85EB8D16
:100CC000FC8D858590E00996B901A8014150510934
:100CD00061097109082E04C0769567955795479567
:100CE0000A94D2F775016401E1E0CE1AD108E10857
:100CF000F10804C0F694E794D794C7948A95D2F784
:100D0000C416D506E606F70620F0012B022B032BAE
:100D100011F58F89988DA98DBA8D8E839F83A887B1
:100D2000B9878E010A5F1F4FC114D104E104F10499
:100D300009F4ADCF4E815F816885798598018B8DEF
:100D40009C8D0E949B0591E0C91AD108E108F10829
:100D50008111EACF81CFC41AD50AE60AF70AE1CF9A
:100D60003F924F925F926F927F928F929F92AF923B
:100D7000BF92CF92DF92EF92FF920F931F93CF9388
:100D8000DF93CDB7DEB72C970FB6F894DEBF0FBE5A
:100D9000CDBF5C01DC015B968D909C905C971696B4
:100DA0004D905D906D907C901997411451046104B1
:100DB000710409F468C0BFEF4B1A5B0A6B0A7B0A27
:100DC000312CF40181859285A385B4859C01AD0108
:100DD0002F5F3F4F4F4F5F4F29873A874B875C8785
:100DE000730162011D821E821F821886F4018185B3
:100DF0009285A385B4852D813E814F815885281722
:100E000039074A075B0708F056C089859A85AB8584
:100E1000BC858C159D05AE05BF0550F482E0C82E3B
:100E2000D12CE12CF12C92E0492E512C612C712C0B
:100E30009E012F5F3F4FB701A601C4010E949B0591
:100E40008823C9F189819A81AB81BC81892B8A2B46
:100E50008B2B09F1260137019FEF491A590A690ABC
:100E6000790A2D813E814F8158852F5F3F4F4F4F2B
:100E70005F4F2D833E834F8358873FEFC31AD30ABA
:100E8000E30AF30AB3CFF40140805180628073809B
:100E90003324339496CFC414D504E604F70409F739
:100EA0000FEF1FEF2FEF3FE0B701A601C4010E9433
:100EB000F904811119C080E02C960FB6F894DEBFBA
:100EC0000FBECDBFDF91CF911F910F91FF90EF909B
:100ED000DF90CF90BF90AF909F908F907F906F905A
:100EE0005F904F903F900895D50116964D915D917A
:100EF0006D917C911997411551056105710539F086
:100F000097018601C4010E94F9048823A1F2D5014A
:100F10001696CD92DD92ED92FC921997332051F006
:100F2000D701C6010196A11DB11DF40180839183F3
:100F3000A283B383F5018789908DA18DB28D892B12
:100F40008A2B8B2B39F48481C78AD08EE18EF28E66
:100F500080688483F50184818062848381E0ACCFE2
:100F60001F93CF93DF93EC01162F8C8187FF2AC04C
:100F70006E857F858889998941E00E942B048823AA
:100F800061F1EA8980E2E89FF0011124EA54FE4F02
:100F9000309719F18D81823040F48B899C89AD891D
:100FA000BE89848F958FA68FB78F8F89988D938FE9
:100FB000828F8F89988DA98DBA8DB58BA48B8C81EA
:100FC0008F778C83111103C08C818F7E8C83812F4E
:100FD000DF91CF911F910C94020480E0DF91CF91BB
:100FE0001F9108951F93CF93DF93EC018D81813082
:100FF00031F090E080E0DF91CF911F9108958C81D6
:1010000081FFF7CF82FD1BC090E080E00E94DB02F1
:101010000E94FF02182F90E080E00E94ED021F3F27
:1010200041F78C8185FF1EC08D81882321F060E00F
:10103000CE010E94B0078C818F7D8C83DACF4B89E3
:101040005C896D897E898A859B85AC85BD85841781
:101050009507A607B707C1F2CE010E941C068111B1
:10106000D3CFC7CF4091B2015091B3016091B40189
:101070007091B501452B462B472B21F080E00E9453
:10108000E003B7CF80618C832A853B85317080E097
:1010900092E0821B930BAFCF9F92AF92BF92CF9201
:1010A000DF92EF92FF920F931F93CF93DF9300D0C5
:1010B00000D01F92CDB7DEB78C016D83DC01159691
:1010C0008C911597813009F0B9C014968C9181FFED
:1010D000B5C082FD9FC0D8015B96ED91FC915C97F5
:1010E0001A96AD90BD90CD90DC901D9794809A9407
:1010F000B601A50189E076956795579547958A953C
:10110000D1F79422B1E0BB22992009F49FC0D80105
:101110005B96ED91FC915C971696CD90DD90ED90ED
:10112000FC901997B2E0CB1AD108E108F108858547
:1011300004C0CC0CDD1CEE1CFF1C8A95D2F7468542
:10114000578560897189C40ED51EE61EF71EC90C2D
:10115000D11CE11CF11CA114B10409F00AC1F80171
:10116000428553856485758583899489A589B68967
:10117000481759076A077B0708F4FBC081E00E9403
:101180000204882309F45AC0C0920601D0920701D4
:10119000E0920801F09209018091B1018160809391
:1011A000B101F501EA54FE4F8D818083F8018285FB
:1011B0009385A485B5850196A11DB11D828793876E
:1011C000A487B58743895489658976894817590763
:1011D0006A077B0738F42481838B948BA58BB68BAD
:1011E00020682483D80114968C9183FD9FC081E0F0
:1011F00090E00F900F900F900F900F90DF91CF9194
:101200001F910F91FF90EF90DF90CF90BF90AF9024
:101210009F900895F801438954896589768982856C
:101220009385A485B585481759076A077B0709F494
:1012300052CFC8010E941C0681114DCF81E090E081
:10124000D80113969C938E93129749C0D801169695
:101250004D915D916D917C911997A114B10409F0A4
:1012600071C0411551056105710589F557968D913C
:101270009D910D90BC91A02D0097A105B10509F09D
:101280004FC0C8010E94B0068823C1F2D8015B9606
:10129000ED91FC915C971696CD90DD90ED90FC90D1
:1012A0001997B2E0CB1AD108E108F108858504C08E
:1012B000CC0CDD1CEE1CFF1C8A95D2F746855785A9
:1012C00060897189C40ED51EE61EF71E48CF9E01A7
:1012D0002F5F3F4FCF010E949B05811103C090E01B
:1012E00080E087CF89819A81AB81BC81F801238D11
:1012F000348DF901278948EF5FEF60E070E020311D
:1013000021F048EF5FEF6FEF7FE084179507A607A6
:10131000B70730F0C8010E94B0068111F8CE8ECF19
:10132000F80186839783A087B187F1CEF801858184
:10133000882309F483CF61E0C8010E94B0078111BE
:1013400056CF7CCF6A017B01B2E0CB1AD108E1080D
:10135000F108858504C0CC0CDD1CEE1CFF1C8A95B1
:10136000D2F74685578560897189C40ED51EE61E61
:10137000F71E41E0C701B6010E942B04811111CF75
:101380005DCF0895CF93DF93EC0189EC93E00E9449
:101390002C02892B29F089EC93E00E949501F5CF6E
:1013A000209769F0FE0101900020E9F73197AF0125
:1013B0004C1B5D0BBE0189EC93E00E9459016FEF5D
:1013C00089EC93E00E946E026FEF89EC93E00E943B
:1013D0006E026FEF89EC93E0DF91CF910C946E0277
:1013E0000F931F93CF93DF93EC018881998100972E
:1013F00059F02A813B812617370730F081E0DF91D1
:10140000CF911F910F9108958B016F5F7F4F0E94C5
:10141000A80F009759F0998388831B830A832C8136
:101420003D81232B59F7FC011082E8CF80E0E7CF04
:10143000EF92FF920F931F93CF93DF93FB010190E5
:101440000020E9F73197E61BF70B6115710541F4B0
:1014500080E0DF91CF911F910F91FF90EF90089561
:101460003097E1F07B018C01DC011496CD91DC9189
:10147000CE0FDF1FBE010E94F009882349F3F80157
:101480002081318184819581B701820F931F0E9451
:101490006E10D8011596DC93CE93149781E0D9CFC6
:1014A000EF92FF920F931F93CF93DF93CDB7DEB7E9
:1014B0006A970FB6F894DEBF0FBECDBF60910201F0
:1014C0007091030180910401909105018E01055FE7
:1014D0001F4F683E23E072078105910508F069C03F
:1014E0009F938F937F936F938CE691E09F938F935D
:1014F0001F930F930E9475100FB6F894DEBF0FBEB6
:10150000CDBFCE0101967C018AE0F70111928A9548
:10151000E9F71E8A1D8A188E1F8A1A8E198E70E0AE
:1015200060E0CE0145960E94F0092D893E89811127
:101530004DC02115310519F0C9010E941F0F1E8AE7
:101540001D8A1A8E198E188E1F8A4AE0B701C801AB
:101550000E94FA0D6091BF047091C004611571057D
:1015600021F0CE0145960E94180A6DE771E0CE0188
:1015700045960E94180AB701CE0145960E94180AA6
:101580008D899E890E94C2090E94A9018D899E8928
:10159000009711F00E941F0F6A960FB6F894DEBFF5
:1015A0000FBECDBFDF91CF911F910F91FF90EF90B4
:1015B000089528EE33E040E050E00E945B0E5F9318
:1015C0004F933F932F9385E791E090CF1A8E198E1A
:1015D0006DEA71E0C9010E946E10B7CF80910001E1
:1015E000909101018C309105D0F401969093010106
:1015F00080930001880F991F880F991FFC01E65EF8
:10160000FE4F80819181A281B381809302019093EA
:101610000301A0930401B09305010C94500A0895AE
:10162000809100019091010118161906D4F40197D8
:101630009093010180930001880F991F880F991FD3
:10164000FC01E65EFE4F80819181A281B38180938F
:10165000020190930301A0930401B09305010C943F
:10166000500A08951F920F920FB60F9211242F93D4
:101670003F938F939F93AF93BF938091C1039091BA
:10168000C203A091C303B091C4033091C00323E00F
:10169000230F2D3758F50196A11DB11D2093C003CE
:1016A0008093C1039093C203A093C303B093C40378
:1016B0008091C5039091C603A091C703B091C80360
:1016C0000196A11DB11D8093C5039093C603A093FD
:1016D000C703B093C803BF91AF919F918F913F9182
:1016E0002F910F900FBE0F901F90189526E8230F93
:1016F0000296A11DB11DD2CF1F920F920FB60F926D
:1017000011242F933F934F935F936F937F938F9306
:101710009F93AF93BF93EF93FF9389EC93E00E9465
:101720004C02FF91EF91BF91AF919F918F917F916B
:101730006F915F914F913F912F910F900FBE0F903E
:101740001F9018951F920F920FB60F9211242F938E
:101750008F939F93EF93FF93E091D903F091DA0376
:101760008081E091DF03F091E00382FD1BC0908156
:101770008091E2038F5F8F732091E303821741F022
:10178000E091E203F0E0E753FC4F958F8093E20392
:10179000FF91EF919F918F912F910F900FBE0F901E
:1017A0001F9018958081F4CF1F920F920FB60F9261
:1017B00011240F900FBE0F901F901895E9ECF3E0E5
:1017C0001382128288EE93E0A0E0B0E084839583D8
:1017D000A683B78382E591E09183808385EC90E0D6
:1017E0009587848784EC90E09787868780EC90E0EB
:1017F000918B808B81EC90E0938B828B82EC90E0DC
:10180000958B848B86EC90E0978B868B118E128E55
:10181000138E148EE6E6F4E080E580831182E8E61C
:10182000F4E0158216821186138682E090E0A0E033
:10183000B0E084879587A687B78713A215A614A65C
:1018400084E691E093A782A717A6E5EDF4E0108265
:1018500082E0818383E891E09383828315821482FE
:10186000118610861386128617821682E9ECF4E040
:10187000108281E0818389E891E0938382831582DD
:101880001482118610861386128617821682EDEB5B
:10189000F4E0108283E0818380E991E09383828386
:1018A000158214821186108613861286178216827C
:1018B000E1EBF4E0108284E0818386E991E0938398
:1018C00082831582148211861086138612861782EF
:1018D00016820895789484B5826084BD84B5816051
:1018E00084BD85B5826085BD85B5816085BD8091EB
:1018F0006E00816080936E00109281008091810063
:10190000826080938100809181008160809381005A
:10191000809180008160809380008091B10084601C
:101920008093B1008091B00081608093B00080917D
:101930007A00846080937A0080917A00826080933C
:101940007A0080917A00816080937A0080917A0099
:10195000806880937A001092C100EDEAF0E0249153
:10196000E9E9F0E08491882399F090E0880F991FCD
:10197000FC01E859FF4FA591B491FC01E458FF4FD9
:10198000859194918FB7F894EC91E22BEC938FBFF3
:10199000C4EAD0E0FE01249100E910E0F80184914E
:1019A0008823C9F090E0880F991FFC01E859FF4F88
:1019B000A591B491FC01E458FF4F459154919FB714
:1019C000F8943C91822F809583238C93FA01808137
:1019D000282B20839FBF60E083E10E94B500E09147
:1019E000D903F091DA0382E08083E091D503F0918E
:1019F000D6031082E091D703F091D8038FEC808357
:101A00001092E103E091DD03F091DE0386E0808334
:101A1000E091DB03F091DC03808180618083E091C1
:101A2000DB03F091DC03808188608083E091DB033D
:101A3000F091DC03808180688083E091DB03F0918A
:101A4000DC0380818F7D80838DEA91E00E94C20952
:101A50008FE991E00E94C2090E94A90187EA91E002
:101A60000E94C2090E94A9018EEE9AE09093DA04C6
:101A70008093D9041092DC041092DB0480E19BE097
:101A80009093CE048093CD041092D0041092CF0492
:101A900087E491E09093B6048093B5041092B80463
:101AA0001092B7040E94500A2DEBE22E23E0F22E92
:101AB00038EBC32E30E0D32E40E0A42E40E0B42E0D
:101AC00089EC93E00E942C02181619060CF06BC0EA
:101AD0006AE070E080E090E00E94080189EC93E009
:101AE0000E949501982EF5E68F13EACF89EC93E0DA
:101AF0000E942C02069724F39092B60397EB892E4E
:101B000093E0992E89EC93E00E949501F401819372
:101B10004F01EE16FF06B1F71092BD038091BA0394
:101B20008F3F71F68091BB038F3F51F68091BC03CC
:101B30008F3F31F69091B8032091B703EAE0F1E0CE
:101B4000A191B191109709F4BBCF8C912813F8CFD4
:101B500011968C9111979813F3CF4091B90350E0EF
:101B600070E060E0413051056105710561F4149643
:101B7000ED91FC911597309709F4A2CF16968D91AF
:101B80009C9109959DCF452B462B472B09F098CF6B
:101B90001896ED91FC911997309709F491CF1A9608
:101BA0008D919C91EECFF6018491FE019490F80105
:101BB0008490882079F081110E948C00E82DF0E05B
:101BC000EE0FFF1FEE58FF4FA591B4918C91982214
:101BD00060E009F461E083E10E94B500A114B10462
:101BE00009F46ECF0E943802882309F469CF0E945D
:101BF000000066CFBB27FB015527AA27880F991F36
:101C0000AA1FA41710F0A41B83955051B9F7A05D2B
:101C1000AA3308F0A95DA193009779F7B111B193A8
:101C20001192CB010C94140EDC01FC01672F719111
:101C30007723E1F7329704C07C916D9370836291B2
:101C4000AE17BF07C8F308952F923F924F925F924D
:101C50006F927F928F929F92AF92BF92CF92DF92BC
:101C6000EF92FF920F931F93CF93DF93CDB7DEB721
:101C7000CA1BDB0B0FB6F894DEBF0FBECDBF0994B5
:101C80002A88398848885F846E847D848C849B840C
:101C9000AA84B984C884DF80EE80FD800C811B811A
:101CA000AA81B981CE0FD11D0FB6F894DEBF0FBE49
:101CB000CDBFED010895A1E21A2EAA1BBB1BFD01A9
:101CC0000DC0AA1FBB1FEE1FFF1FA217B307E4071B
:101CD000F50720F0A21BB30BE40BF50B661F771F73
:101CE000881F991F1A9469F7609570958095909553
:101CF0009B01AC01BD01CF010895EE0FFF1F0590C0
:101D0000F491E02D09940F931F93CF93DF938230CA
:101D1000910510F482E090E0E091E304F091E40496
:101D200030E020E0B0E0A0E0309799F421153105D3
:101D300009F44AC0281B390B24303105D8F58A81B3
:101D40009B816115710589F1FB0193838283FE01FB
:101D500011C0408151810281138148175907E0F079
:101D60004817590799F4109761F012960C9312973F
:101D700013961C933296CF01DF91CF911F910F9153
:101D800008950093E3041093E404F4CF2115310582
:101D900051F04217530738F0A901DB019A01BD0148
:101DA000DF01F801C1CFEF01F9CF9093E4048093F4
:101DB000E304CDCFFE01E20FF31F819391932250F4
:101DC000310939832883D7CF2091E1043091E2048F
:101DD000232B41F420911601309117013093E20436
:101DE0002093E10420911401309115012115310552
:101DF00041F42DB73EB74091180150911901241BB1
:101E0000350BE091E104F091E204E217F307A0F44E
:101E10002E1B3F0B2817390778F0AC014E5F5F4F40
:101E20002417350748F04E0F5F1F5093E20440938C
:101E3000E104819391939FCFF0E0E0E09CCFCF93BA
:101E4000DF930097E9F0FC01329713821282A09190
:101E5000E304B091E404ED0130E020E01097A1F438
:101E600020813181820F931F2091E1043091E2049F
:101E70002817390709F061C0F093E204E093E10408
:101E8000DF91CF910895EA01CE17DF07E8F54A8187
:101E90005B819E0141155105B1F7E901FB83EA839E
:101EA00049915991C40FD51FEC17FD0761F480814A
:101EB00091810296840F951FE9019983888382811D
:101EC00093819B838A83F0E0E0E012968D919C9150
:101ED00013970097B9F52D913C911197CD0102967A
:101EE000820F931F2091E1043091E20428173907F3
:101EF00039F6309751F51092E4041092E304B09350
:101F0000E204A093E104BCCFD383C283408151811A
:101F1000840F951FC817D90761F44E5F5F4F888102
:101F20009981480F591F518340838A819B819383F4
:101F300082832115310509F0B0CFF093E404E093DA
:101F4000E3049ECFFD01DC01C0CF13821282D7CF04
:101F5000B0E0A0E0EEEAFFE00C94260E8C010097C2
:101F600051F4CB010E94830E8C01C801CDB7DEB7BE
:101F7000E0E10C94420EFC01E60FF71F9C01225099
:101F80003109E217F30708F49DC0D901CD91DC9126
:101F90001197C617D70798F0C530D10530F3CE0199
:101FA00004978617970708F3C61BD70B2297C19390
:101FB000D1936D937C93CF010E941F0FD6CF5B010D
:101FC000AC1ABD0A4C018C0E9D1EA091E304B09189
:101FD000E404512C412CF12CE12C109731F5809127
:101FE000E1049091E2048815990509F05CC0461659
:101FF000570608F058C08091140190911501009780
:1020000041F48DB79EB74091180150911901841B7E
:10201000950BE817F90708F055C0F093E204E09338
:10202000E104F90171836083A0CF8D919C91119798
:1020300012966C90129713967C901397A815B90579
:1020400059F56C0142E0C40ED11CCA14DB0420F126
:10205000AC014A195B09DA011296159780F0628289
:10206000738251834083D9016D937C93E114F10411
:1020700071F0D7011396FC93EE93129776CF2296C8
:102080008C0F9D1FF90191838083F301EFCFF093B3
:10209000E404E093E30469CF4816590608F42C01E0
:1020A0007D01D3019ACFCB010E94830E7C01009762
:1020B00049F0AE01B8010E946510C8010E941F0FCF
:1020C000870153CF10E000E050CFFB01DC0102C0DC
:1020D00001900D9241505040D8F70895FB01DC016A
:1020E00001900D920020E1F70895AEE0B0E0EBE73B
:1020F000F0E10C94320E0D891E8986E08C831A83E0
:1021000009838FEF9FE79E838D83AE01475E5F4F0C
:102110006F89788DCE0101960E9498102F813885A5
:10212000020F131FF80110822E96E4E00C944E0E5D
:10213000ABE0B0E0EEE9F0E10C94240E7C013B0151
:102140008A01FC0117821682838181FFC8C1CE01FA
:1021500001965C01F7019381F30193FD859193FF53
:1021600081913F01882309F453C1853239F493FDED
:10217000859193FF81913F01853229F4B70190E069
:102180000E948812E7CF912C212C312CFFE1F3150E
:1021900038F08B3211F190F4803209F1833229F159
:1021A00037FC3CC020ED280F2A3050F536FE20C009
:1021B0008AE0989E200D1124922E06C08D3291F057
:1021C000803371F7689430F8F30193FD859193FFA4
:1021D00081913F018111DACF21C0689431F8689470
:1021E00032F8F2CF689433F8EFCF689434F8ECCF3C
:1021F000EAE02E9E200D1124222E689435F8E4CFBB
:102200008E3229F436FC04C1689436F8DDCF8C3662
:1022100019F4689437F8D8CF8836B1F2982F9F7D9B
:1022200095549330E0F08336A1F18337C1F18335C3
:1022300009F063C02801F2E04F0E511CF801C08084
:10224000D180692D70E036FC02C06FEF7FEFC601D0
:102250000E9472124C01689437F882010AC00C5F28
:102260001F4FFFE3F98388248394912C6501E89440
:1022700037F833FE2DC0522C8114910471F555208E
:1022800009F468CFB70180E290E00E9488125A9466
:10229000F6CFF801808189830E5F1F4FE4CF2801BC
:1022A000F2E04F0E511CF801C080D180692D70E022
:1022B00036FC02C06FEF7FEFC6010E947D124C0119
:1022C0008201D5CFB70180E290E00E9488122A9463
:1022D0002814190409F0B0F7CECFF60137FC859128
:1022E00037FE81916F01B70190E00E948812511072
:1022F0005A94F1E08F1A9108BFCF843619F08936CD
:1023000009F077C0F80137FE6BC06081718182816E
:1023100093810C5F1F4FF32DFF763F2E97FF09C06F
:1023200090958095709561957F4F8F4F9F4F6894E2
:1023300037F82AE030E0A5010E94B812C82ECA186A
:102340008C2C432C36FE0CC0E89440F8C91440F4A1
:1023500034FE05C032FC03C0F32DFE7E4F2E892CC7
:1023600044FE95C0FE01EC0DF11D8081803309F023
:1023700087C0242D297E422E842D8870582E43FC40
:1023800095C040FE8FC09C2C821418F42C0C922C0B
:10239000981844FE91C0B70180E390E00E94881233
:1023A00042FE09C088E790E041FE02C088E590E067
:1023B000B7010E948812C91408F48AC0CA94D12CAB
:1023C0009FEFC91AD90ACA0CDB1CF60182916F0172
:1023D000B70190E00E948812AC14BD04B1F74FCF52
:1023E00060817181072E000C880B990B0E5F1F4FC7
:1023F00092CFD32CE894D4F82AE030E0853739F135
:10240000232D297FD22E8F3601F148F48835A9F08B
:10241000F701868197812B96E2E10C94400E80377C
:1024200049F08837A9F7D4FE02C06894D2F820E1B9
:1024300030E00DC06894D4F8F6CF34FE03C0822F8C
:102440008660D82E20E132E002C028E030E0F801BA
:10245000D7FE0FC060817181828193810C5F1F4F15
:10246000A5010E94B812C82ECA183D2CE89437F86E
:1024700067CF6081718190E080E00E5F1F4FF0CFE9
:1024800042FC02C0839478CF8394839475CF842DCB
:10249000867809F471CFF6CFB70180E290E00E9410
:1024A000881283948214C0F3512C73CF522C581885
:1024B000821408F46ECFF8CF842D867809F47BCF90
:1024C0008BE241FE80E247FC8DE2B70190E071CFE4
:1024D000B70180E390E00E9488129A946CCF8FEF4E
:1024E0009FEF99CFFC010590615070400110D8F723
:1024F000809590958E0F9F1F0895FC01615070404C
:1025000001900110D8F7809590958E0F9F1F089528
:102510000F931F93CF93DF93182F092FEB018B811C
:1025200081FD09C01FEF0FEF812F902FDF91CF9119
:102530001F910F91089582FF14C02E813F818C81DD
:102540009D81281739073CF4E881F981CF01019674
:102550009983888310838E819F8101969F838E83C8
:10256000E3CFE885F985812F0995892BA1F3DACF8F
:10257000FA01AA27283051F1203181F1E8946F93B4
:102580006E7F6E5F7F4F8F4F9F4FAF4FB1E03ED05A
:10259000B4E03CD0670F781F891F9A1FA11D680FF8
:1025A000791F8A1F911DA11D6A0F711D811D911D2B
:1025B000A11D20D009F468943F912AE0269F1124A0
:1025C0003019305D3193DEF6CF010895462F477004
:1025D000405D4193B3E00FD0C9F7F6CF462F4F705F
:1025E000405D4A3318F0495D31FD4052419302D0BD
:1025F000A9F7EACFB4E0A695979587957795679563
:10260000BA95C9F700976105710508959B01AC0162
:102610000A2E06945795479537952795BA95C9F789
:10262000620F731F841F951FA01D0895F894FFCF9C
:102630000600E8030000FFFFFFFFD504C904B10452
:10264000BD0400000000E504800083060000050DC5
:1026500000000B1A00007D000000FA000000F401E9
:102660000000E8030000D0070000B80B0000A00F36
:102670000000F0CC0100D8D00100C0D4010000005F
:1026800000006E0259018601BB022C0295011E0258
:10269000000000004C085901F207C1092530346CD4
:1026A00075206D73002530346C752073002E7661B3
:1026B0006C3D0062506C757300624D696E757300FD
:1026C0007454696D65006253687574746572006254
:0E26D0006B636D643D31007061676520300002
:107E0000112484B714BE81FFF0D085E080938100F7
:107E100082E08093C00088E18093C10086E0809377
:107E2000C20080E18093C4008EE0C9D0259A86E02C
:107E300020E33CEF91E0309385002093840096BBD3
:107E4000B09BFECF1D9AA8958150A9F7CC24DD24C4
:107E500088248394B5E0AB2EA1E19A2EF3E0BF2EE7
:107E6000A2D0813461F49FD0082FAFD0023811F036
:107E7000013811F484E001C083E08DD089C08234E0
:107E800011F484E103C0853419F485E0A6D080C0E4
:107E9000853579F488D0E82EFF2485D0082F10E0AE
:107EA000102F00270E291F29000F111F8ED06801E7
:107EB0006FC0863521F484E090D080E0DECF843638
:107EC00009F040C070D06FD0082F6DD080E0C81688
:107ED00080E7D80618F4F601B7BEE895C0E0D1E017
:107EE00062D089930C17E1F7F0E0CF16F0E7DF06D8
:107EF00018F0F601B7BEE89568D007B600FCFDCFD4
:107F0000A601A0E0B1E02C9130E011968C91119780
:107F100090E0982F8827822B932B1296FA010C0160
:107F200087BEE89511244E5F5F4FF1E0A038BF0790
:107F300051F7F601A7BEE89507B600FCFDCF97BE46
:107F4000E89526C08437B1F42ED02DD0F82E2BD052
:107F50003CD0F601EF2C8F010F5F1F4F84911BD097
:107F6000EA94F801C1F70894C11CD11CFA94CF0C13
:107F7000D11C0EC0853739F428D08EE10CD085E9AC
:107F80000AD08FE07ACF813511F488E018D01DD067
:107F900080E101D065CF982F8091C00085FFFCCF94
:107FA0009093C60008958091C00087FFFCCF809118
:107FB000C00084FD01C0A8958091C6000895E0E648
:107FC000F0E098E1908380830895EDDF803219F02E
:107FD00088E0F5DFFFCF84E1DECF1F93182FE3DFCA
:107FE0001150E9F7F2DF1F91089580E0E8DFEE27F6
:047FF000FF270994CA
:027FFE00040479
:00000001FF
